{
  "_format": "hh-sol-artifact-1",
  "contractName": "Kasu",
  "sourceName": "contracts/Kasu.sol",
  "abi": [
    {
      "anonymous": false,
      "inputs": [
        {
          "indexed": false,
          "internalType": "uint256",
          "name": "tokenId",
          "type": "uint256"
        }
      ],
      "name": "ListNFT",
      "type": "event"
    },
    {
      "anonymous": false,
      "inputs": [
        {
          "indexed": false,
          "internalType": "uint256",
          "name": "listingId",
          "type": "uint256"
        }
      ],
      "name": "Returned",
      "type": "event"
    },
    {
      "anonymous": false,
      "inputs": [
        {
          "indexed": false,
          "internalType": "uint256",
          "name": "listingId",
          "type": "uint256"
        }
      ],
      "name": "TerminateRental",
      "type": "event"
    },
    {
      "anonymous": false,
      "inputs": [
        {
          "indexed": false,
          "internalType": "uint256",
          "name": "listingId",
          "type": "uint256"
        }
      ],
      "name": "UnlistNFT",
      "type": "event"
    },
    {
      "inputs": [
        {
          "internalType": "uint256",
          "name": "listingId",
          "type": "uint256"
        }
      ],
      "name": "borrow",
      "outputs": [],
      "stateMutability": "payable",
      "type": "function"
    },
    {
      "inputs": [],
      "name": "getListingCount",
      "outputs": [
        {
          "internalType": "uint256",
          "name": "",
          "type": "uint256"
        }
      ],
      "stateMutability": "view",
      "type": "function"
    },
    {
      "inputs": [
        {
          "internalType": "uint256",
          "name": "tokenId",
          "type": "uint256"
        },
        {
          "internalType": "address",
          "name": "tokenAddress",
          "type": "address"
        },
        {
          "internalType": "uint16",
          "name": "duration",
          "type": "uint16"
        },
        {
          "internalType": "uint16",
          "name": "dailyInterestRate",
          "type": "uint16"
        },
        {
          "internalType": "uint256",
          "name": "collateralRequired",
          "type": "uint256"
        }
      ],
      "name": "listNFT",
      "outputs": [],
      "stateMutability": "nonpayable",
      "type": "function"
    },
    {
      "inputs": [
        {
          "internalType": "uint256",
          "name": "listingId",
          "type": "uint256"
        }
      ],
      "name": "returnNFT",
      "outputs": [],
      "stateMutability": "nonpayable",
      "type": "function"
    },
    {
      "inputs": [
        {
          "internalType": "uint256",
          "name": "listingId",
          "type": "uint256"
        }
      ],
      "name": "terminateRental",
      "outputs": [],
      "stateMutability": "nonpayable",
      "type": "function"
    },
    {
      "inputs": [
        {
          "internalType": "uint256",
          "name": "listingId",
          "type": "uint256"
        }
      ],
      "name": "unlistNFT",
      "outputs": [],
      "stateMutability": "nonpayable",
      "type": "function"
    },
    {
      "inputs": [],
      "name": "viewAllListings",
      "outputs": [
        {
          "components": [
            {
              "internalType": "uint256",
              "name": "id",
              "type": "uint256"
            },
            {
              "internalType": "uint256",
              "name": "tokenId",
              "type": "uint256"
            },
            {
              "internalType": "address",
              "name": "tokenAddress",
              "type": "address"
            },
            {
              "internalType": "address payable",
              "name": "lenderAddress",
              "type": "address"
            },
            {
              "internalType": "uint16",
              "name": "duration",
              "type": "uint16"
            },
            {
              "internalType": "uint16",
              "name": "dailyInterestRate",
              "type": "uint16"
            },
            {
              "internalType": "uint256",
              "name": "collateralRequired",
              "type": "uint256"
            },
            {
              "components": [
                {
                  "internalType": "address payable",
                  "name": "borrowerAddress",
                  "type": "address"
                },
                {
                  "internalType": "uint256",
                  "name": "rentedAt",
                  "type": "uint256"
                }
              ],
              "internalType": "struct KasuStorage.Rental",
              "name": "rental",
              "type": "tuple"
            }
          ],
          "internalType": "struct KasuStorage.Listing[]",
          "name": "",
          "type": "tuple[]"
        }
      ],
      "stateMutability": "view",
      "type": "function"
    },
    {
      "inputs": [],
      "name": "viewOwnedOngoingListingsAndRentals",
      "outputs": [
        {
          "components": [
            {
              "internalType": "uint256",
              "name": "id",
              "type": "uint256"
            },
            {
              "internalType": "uint256",
              "name": "tokenId",
              "type": "uint256"
            },
            {
              "internalType": "address",
              "name": "tokenAddress",
              "type": "address"
            },
            {
              "internalType": "address payable",
              "name": "lenderAddress",
              "type": "address"
            },
            {
              "internalType": "uint16",
              "name": "duration",
              "type": "uint16"
            },
            {
              "internalType": "uint16",
              "name": "dailyInterestRate",
              "type": "uint16"
            },
            {
              "internalType": "uint256",
              "name": "collateralRequired",
              "type": "uint256"
            },
            {
              "components": [
                {
                  "internalType": "address payable",
                  "name": "borrowerAddress",
                  "type": "address"
                },
                {
                  "internalType": "uint256",
                  "name": "rentedAt",
                  "type": "uint256"
                }
              ],
              "internalType": "struct KasuStorage.Rental",
              "name": "rental",
              "type": "tuple"
            }
          ],
          "internalType": "struct KasuStorage.Listing[]",
          "name": "",
          "type": "tuple[]"
        }
      ],
      "stateMutability": "view",
      "type": "function"
    },
    {
      "inputs": [],
      "name": "viewRentedListings",
      "outputs": [
        {
          "components": [
            {
              "internalType": "uint256",
              "name": "id",
              "type": "uint256"
            },
            {
              "internalType": "uint256",
              "name": "tokenId",
              "type": "uint256"
            },
            {
              "internalType": "address",
              "name": "tokenAddress",
              "type": "address"
            },
            {
              "internalType": "address payable",
              "name": "lenderAddress",
              "type": "address"
            },
            {
              "internalType": "uint16",
              "name": "duration",
              "type": "uint16"
            },
            {
              "internalType": "uint16",
              "name": "dailyInterestRate",
              "type": "uint16"
            },
            {
              "internalType": "uint256",
              "name": "collateralRequired",
              "type": "uint256"
            },
            {
              "components": [
                {
                  "internalType": "address payable",
                  "name": "borrowerAddress",
                  "type": "address"
                },
                {
                  "internalType": "uint256",
                  "name": "rentedAt",
                  "type": "uint256"
                }
              ],
              "internalType": "struct KasuStorage.Rental",
              "name": "rental",
              "type": "tuple"
            }
          ],
          "internalType": "struct KasuStorage.Listing[]",
          "name": "",
          "type": "tuple[]"
        }
      ],
      "stateMutability": "view",
      "type": "function"
    }
  ],
  "bytecode": "0x6080604052600160005534801561001557600080fd5b50613236806100256000396000f3fe6080604052600436106100865760003560e01c8063b0cd2aa011610059578063b0cd2aa014610133578063bf1b2c3a1461015c578063c5ebeaec14610187578063e522a8a1146101a3578063f9217419146101ce57610086565b80637ac0da041461008b57806381fab025146100b457806387ed92d7146100df578063961f09441461010a575b600080fd5b34801561009757600080fd5b506100b260048036038101906100ad9190612480565b6101f7565b005b3480156100c057600080fd5b506100c96102ec565b6040516100d69190612938565b60405180910390f35b3480156100eb57600080fd5b506100f46105b8565b6040516101019190612b1a565b60405180910390f35b34801561011657600080fd5b50610131600480360381019061012c9190612457565b6105c7565b005b34801561013f57600080fd5b5061015a60048036038101906101559190612457565b610652565b005b34801561016857600080fd5b506101716109e7565b60405161017e9190612938565b60405180910390f35b6101a1600480360381019061019c9190612457565b610ef3565b005b3480156101af57600080fd5b506101b861118c565b6040516101c59190612938565b60405180910390f35b3480156101da57600080fd5b506101f560048036038101906101f09190612457565b611690565b005b6000604051806101000160405280600081526020018781526020018673ffffffffffffffffffffffffffffffffffffffff1681526020013373ffffffffffffffffffffffffffffffffffffffff1681526020018561ffff1681526020018461ffff1681526020018381526020016040518060400160405280600073ffffffffffffffffffffffffffffffffffffffff1681526020016000815250815250905061029f81611a45565b6102a881611be1565b507ffb3c9be84e060b16665f2ed71b9e1f625d2104e176926bbe34b79f4382dbb44881602001516040516102dc9190612b1a565b60405180910390a1505050505050565b606060006102f8611d90565b90506000815167ffffffffffffffff81111561033d577f4e487b7100000000000000000000000000000000000000000000000000000000600052604160045260246000fd5b60405190808252806020026020018201604052801561037657816020015b610363612369565b81526020019060019003908161035b5790505b50905060005b82518110156105af576103ce8382815181106103c1577f4e487b7100000000000000000000000000000000000000000000000000000000600052603260045260246000fd5b6020026020010151611e93565b6040518061010001604052908160008201548152602001600182015481526020016002820160009054906101000a900473ffffffffffffffffffffffffffffffffffffffff1673ffffffffffffffffffffffffffffffffffffffff1673ffffffffffffffffffffffffffffffffffffffff1681526020016003820160009054906101000a900473ffffffffffffffffffffffffffffffffffffffff1673ffffffffffffffffffffffffffffffffffffffff1673ffffffffffffffffffffffffffffffffffffffff1681526020016003820160149054906101000a900461ffff1661ffff1661ffff1681526020016003820160169054906101000a900461ffff1661ffff1661ffff16815260200160048201548152602001600582016040518060400160405290816000820160009054906101000a900473ffffffffffffffffffffffffffffffffffffffff1673ffffffffffffffffffffffffffffffffffffffff1673ffffffffffffffffffffffffffffffffffffffff16815260200160018201548152505081525050828281518110610591577f4e487b7100000000000000000000000000000000000000000000000000000000600052603260045260246000fd5b602002602001018190525080806105a790612d7d565b91505061037c565b50809250505090565b60006105c2611eaf565b905090565b6105d081611ec0565b61060f576040517f08c379a0000000000000000000000000000000000000000000000000000000008152600401610606906129fa565b60405180910390fd5b61061881611edd565b7fe659a8b2064151c52cf8c07d982ee6619f342d72fda61f98916c2248f5de904f816040516106479190612b1a565b60405180910390a150565b600061065d82611e93565b6040518061010001604052908160008201548152602001600182015481526020016002820160009054906101000a900473ffffffffffffffffffffffffffffffffffffffff1673ffffffffffffffffffffffffffffffffffffffff1673ffffffffffffffffffffffffffffffffffffffff1681526020016003820160009054906101000a900473ffffffffffffffffffffffffffffffffffffffff1673ffffffffffffffffffffffffffffffffffffffff1673ffffffffffffffffffffffffffffffffffffffff1681526020016003820160149054906101000a900461ffff1661ffff1661ffff1681526020016003820160169054906101000a900461ffff1661ffff1661ffff16815260200160048201548152602001600582016040518060400160405290816000820160009054906101000a900473ffffffffffffffffffffffffffffffffffffffff1673ffffffffffffffffffffffffffffffffffffffff1673ffffffffffffffffffffffffffffffffffffffff168152602001600182015481525050815250509050600081600001511415610831576040517f08c379a000000000000000000000000000000000000000000000000000000000815260040161082890612a3a565b60405180910390fd5b806040015173ffffffffffffffffffffffffffffffffffffffff166342842e0e8260e0015160000151836060015184602001516040518463ffffffff1660e01b8152600401610882939291906128ca565b600060405180830381600087803b15801561089c57600080fd5b505af11580156108b0573d6000803e3d6000fd5b5050505060008160e001516000015173ffffffffffffffffffffffffffffffffffffffff168260c001516040516108e6906128b5565b60006040518083038185875af1925050503d8060008114610923576040519150601f19603f3d011682016040523d82523d6000602084013e610928565b606091505b505090508061096c576040517f08c379a000000000000000000000000000000000000000000000000000000000815260040161096390612ada565b60405180910390fd5b60008260e0015160200151426109829190612ca8565b9050600061099861099286611e93565b83611fd1565b90508360600151506109a985611edd565b7ff8c86c3655fab14dd6996efe90c18eec2193e12c9e41f83d8a7645284f12e91c856040516109d89190612b1a565b60405180910390a15050505050565b60606000805b6109f76002612026565b811015610c07576000610a1c610a1783600261203b90919063ffffffff16565b611e93565b6040518061010001604052908160008201548152602001600182015481526020016002820160009054906101000a900473ffffffffffffffffffffffffffffffffffffffff1673ffffffffffffffffffffffffffffffffffffffff1673ffffffffffffffffffffffffffffffffffffffff1681526020016003820160009054906101000a900473ffffffffffffffffffffffffffffffffffffffff1673ffffffffffffffffffffffffffffffffffffffff1673ffffffffffffffffffffffffffffffffffffffff1681526020016003820160149054906101000a900461ffff1661ffff1661ffff1681526020016003820160169054906101000a900461ffff1661ffff1661ffff16815260200160048201548152602001600582016040518060400160405290816000820160009054906101000a900473ffffffffffffffffffffffffffffffffffffffff1673ffffffffffffffffffffffffffffffffffffffff1673ffffffffffffffffffffffffffffffffffffffff1681526020016001820154815250508152505090503373ffffffffffffffffffffffffffffffffffffffff168160e001516000015173ffffffffffffffffffffffffffffffffffffffff161415610bf3578280610bef90612d7d565b9350505b508080610bff90612d7d565b9150506109ed565b5060008167ffffffffffffffff811115610c4a577f4e487b7100000000000000000000000000000000000000000000000000000000600052604160045260246000fd5b604051908082528060200260200182016040528015610c8357816020015b610c70612369565b815260200190600190039081610c685790505b5090506000805b610c946002612026565b811015610ee9576000610cb9610cb483600261203b90919063ffffffff16565b611e93565b6040518061010001604052908160008201548152602001600182015481526020016002820160009054906101000a900473ffffffffffffffffffffffffffffffffffffffff1673ffffffffffffffffffffffffffffffffffffffff1673ffffffffffffffffffffffffffffffffffffffff1681526020016003820160009054906101000a900473ffffffffffffffffffffffffffffffffffffffff1673ffffffffffffffffffffffffffffffffffffffff1673ffffffffffffffffffffffffffffffffffffffff1681526020016003820160149054906101000a900461ffff1661ffff1661ffff1681526020016003820160169054906101000a900461ffff1661ffff1661ffff16815260200160048201548152602001600582016040518060400160405290816000820160009054906101000a900473ffffffffffffffffffffffffffffffffffffffff1673ffffffffffffffffffffffffffffffffffffffff1673ffffffffffffffffffffffffffffffffffffffff1681526020016001820154815250508152505090503373ffffffffffffffffffffffffffffffffffffffff168160e001516000015173ffffffffffffffffffffffffffffffffffffffff161415610ed55780848481518110610ebb577f4e487b7100000000000000000000000000000000000000000000000000000000600052603260045260246000fd5b60200260200101819052508280610ed190612d7d565b9350505b508080610ee190612d7d565b915050610c8a565b5081935050505090565b610efc81611ec0565b610f3b576040517f08c379a0000000000000000000000000000000000000000000000000000000008152600401610f32906129fa565b60405180910390fd5b6000610f4682611e93565b90506000816005016001015414610f92576040517f08c379a0000000000000000000000000000000000000000000000000000000008152600401610f8990612a7a565b60405180910390fd5b3373ffffffffffffffffffffffffffffffffffffffff168160030160009054906101000a900473ffffffffffffffffffffffffffffffffffffffff1673ffffffffffffffffffffffffffffffffffffffff161415611025576040517f08c379a000000000000000000000000000000000000000000000000000000000815260040161101c906129da565b60405180910390fd5b600061103082612055565b9050803414611074576040517f08c379a000000000000000000000000000000000000000000000000000000000815260040161106b90612afa565b60405180910390fd5b338260050160000160006101000a81548173ffffffffffffffffffffffffffffffffffffffff021916908373ffffffffffffffffffffffffffffffffffffffff16021790555042826005016001018190555060008260020160009054906101000a900473ffffffffffffffffffffffffffffffffffffffff1690508073ffffffffffffffffffffffffffffffffffffffff166342842e0e8460030160009054906101000a900473ffffffffffffffffffffffffffffffffffffffff163386600101546040518463ffffffff1660e01b815260040161115493929190612901565b600060405180830381600087803b15801561116e57600080fd5b505af1158015611182573d6000803e3d6000fd5b5050505050505050565b60606000805b61119c6002612026565b8110156113a85760006111c16111bc83600261203b90919063ffffffff16565b611e93565b6040518061010001604052908160008201548152602001600182015481526020016002820160009054906101000a900473ffffffffffffffffffffffffffffffffffffffff1673ffffffffffffffffffffffffffffffffffffffff1673ffffffffffffffffffffffffffffffffffffffff1681526020016003820160009054906101000a900473ffffffffffffffffffffffffffffffffffffffff1673ffffffffffffffffffffffffffffffffffffffff1673ffffffffffffffffffffffffffffffffffffffff1681526020016003820160149054906101000a900461ffff1661ffff1661ffff1681526020016003820160169054906101000a900461ffff1661ffff1661ffff16815260200160048201548152602001600582016040518060400160405290816000820160009054906101000a900473ffffffffffffffffffffffffffffffffffffffff1673ffffffffffffffffffffffffffffffffffffffff1673ffffffffffffffffffffffffffffffffffffffff1681526020016001820154815250508152505090503373ffffffffffffffffffffffffffffffffffffffff16816060015173ffffffffffffffffffffffffffffffffffffffff16141561139457828061139090612d7d565b9350505b5080806113a090612d7d565b915050611192565b5060008167ffffffffffffffff8111156113eb577f4e487b7100000000000000000000000000000000000000000000000000000000600052604160045260246000fd5b60405190808252806020026020018201604052801561142457816020015b611411612369565b8152602001906001900390816114095790505b5090506000805b6114356002612026565b81101561168657600061145a61145583600261203b90919063ffffffff16565b611e93565b6040518061010001604052908160008201548152602001600182015481526020016002820160009054906101000a900473ffffffffffffffffffffffffffffffffffffffff1673ffffffffffffffffffffffffffffffffffffffff1673ffffffffffffffffffffffffffffffffffffffff1681526020016003820160009054906101000a900473ffffffffffffffffffffffffffffffffffffffff1673ffffffffffffffffffffffffffffffffffffffff1673ffffffffffffffffffffffffffffffffffffffff1681526020016003820160149054906101000a900461ffff1661ffff1661ffff1681526020016003820160169054906101000a900461ffff1661ffff1661ffff16815260200160048201548152602001600582016040518060400160405290816000820160009054906101000a900473ffffffffffffffffffffffffffffffffffffffff1673ffffffffffffffffffffffffffffffffffffffff1673ffffffffffffffffffffffffffffffffffffffff1681526020016001820154815250508152505090503373ffffffffffffffffffffffffffffffffffffffff16816060015173ffffffffffffffffffffffffffffffffffffffff1614156116725780848481518110611658577f4e487b7100000000000000000000000000000000000000000000000000000000600052603260045260246000fd5b6020026020010181905250828061166e90612d7d565b9350505b50808061167e90612d7d565b91505061142b565b5081935050505090565b600061169b82611e93565b9050611830816040518061010001604052908160008201548152602001600182015481526020016002820160009054906101000a900473ffffffffffffffffffffffffffffffffffffffff1673ffffffffffffffffffffffffffffffffffffffff1673ffffffffffffffffffffffffffffffffffffffff1681526020016003820160009054906101000a900473ffffffffffffffffffffffffffffffffffffffff1673ffffffffffffffffffffffffffffffffffffffff1673ffffffffffffffffffffffffffffffffffffffff1681526020016003820160149054906101000a900461ffff1661ffff1661ffff1681526020016003820160169054906101000a900461ffff1661ffff1661ffff16815260200160048201548152602001600582016040518060400160405290816000820160009054906101000a900473ffffffffffffffffffffffffffffffffffffffff1673ffffffffffffffffffffffffffffffffffffffff1673ffffffffffffffffffffffffffffffffffffffff16815260200160018201548152505081525050611a45565b3373ffffffffffffffffffffffffffffffffffffffff168160030160009054906101000a900473ffffffffffffffffffffffffffffffffffffffff1673ffffffffffffffffffffffffffffffffffffffff16146118c2576040517f08c379a00000000000000000000000000000000000000000000000000000000081526004016118b990612a5a565b60405180910390fd5b6000620151808260030160149054906101000a900461ffff1661ffff166118e99190612c11565b62ffffff1682600501600101546119009190612b8a565b905080421015611945576040517f08c379a000000000000000000000000000000000000000000000000000000000815260040161193c906129ba565b60405180910390fd5b600061195083612055565b905061195b84611edd565b60003373ffffffffffffffffffffffffffffffffffffffff1682604051611981906128b5565b60006040518083038185875af1925050503d80600081146119be576040519150601f19603f3d011682016040523d82523d6000602084013e6119c3565b606091505b5050905080611a07576040517f08c379a00000000000000000000000000000000000000000000000000000000081526004016119fe90612aba565b60405180910390fd5b7ff4b6d8e6d67e89eda2471635f9ba22585be1274f88e88143a6f0454aff128c1585604051611a369190612b1a565b60405180910390a15050505050565b600081602001511415611a8d576040517f08c379a0000000000000000000000000000000000000000000000000000000008152600401611a849061299a565b60405180910390fd5b600073ffffffffffffffffffffffffffffffffffffffff16816040015173ffffffffffffffffffffffffffffffffffffffff161415611b01576040517f08c379a0000000000000000000000000000000000000000000000000000000008152600401611af890612a1a565b60405180910390fd5b6000816080015161ffff1611611b4c576040517f08c379a0000000000000000000000000000000000000000000000000000000008152600401611b439061297a565b60405180910390fd5b60008160a0015161ffff1611611b97576040517f08c379a0000000000000000000000000000000000000000000000000000000008152600401611b8e90612a9a565b60405180910390fd5b60008160c0015111611bde576040517f08c379a0000000000000000000000000000000000000000000000000000000008152600401611bd59061295a565b60405180910390fd5b50565b6000806000815480929190611bf590612d7d565b91905055826000018181525050816001600084600001518152602001908152602001600020600082015181600001556020820151816001015560408201518160020160006101000a81548173ffffffffffffffffffffffffffffffffffffffff021916908373ffffffffffffffffffffffffffffffffffffffff16021790555060608201518160030160006101000a81548173ffffffffffffffffffffffffffffffffffffffff021916908373ffffffffffffffffffffffffffffffffffffffff16021790555060808201518160030160146101000a81548161ffff021916908361ffff16021790555060a08201518160030160166101000a81548161ffff021916908361ffff16021790555060c0820151816004015560e08201518160050160008201518160000160006101000a81548173ffffffffffffffffffffffffffffffffffffffff021916908373ffffffffffffffffffffffffffffffffffffffff160217905550602082015181600101555050905050611d83826000015160026120a090919063ffffffff16565b5081600001519050919050565b60606000611d9e6002612026565b905060008167ffffffffffffffff811115611de2577f4e487b7100000000000000000000000000000000000000000000000000000000600052604160045260246000fd5b604051908082528060200260200182016040528015611e105781602001602082028036833780820191505090505b50905060005b82811015611e8a57611e3281600261203b90919063ffffffff16565b828281518110611e6b577f4e487b7100000000000000000000000000000000000000000000000000000000600052603260045260246000fd5b6020026020010181815250508080611e8290612d7d565b915050611e16565b50809250505090565b6000600160008381526020019081526020016000209050919050565b6000611ebb6002612026565b905090565b6000611ed68260026120ba90919063ffffffff16565b9050919050565b6001600082815260200190815260200160002060008082016000905560018201600090556002820160006101000a81549073ffffffffffffffffffffffffffffffffffffffff02191690556003820160006101000a81549073ffffffffffffffffffffffffffffffffffffffff02191690556003820160146101000a81549061ffff02191690556003820160166101000a81549061ffff0219169055600482016000905560058201600080820160006101000a81549073ffffffffffffffffffffffffffffffffffffffff0219169055600182016000905550505050611fcd8160026120d490919063ffffffff16565b5050565b60006064620151808385600401548660030160169054906101000a900461ffff1661ffff166120009190612c4e565b61200a9190612c4e565b6120149190612be0565b61201e9190612be0565b905092915050565b6000612034826000016120ee565b9050919050565b600061204a83600001836120ff565b60001c905092915050565b600061208a82620151808460030160149054906101000a900461ffff1661ffff166120809190612c11565b62ffffff16611fd1565b82600401546120999190612b8a565b9050919050565b60006120b2836000018360001b612150565b905092915050565b60006120cc836000018360001b6121c0565b905092915050565b60006120e6836000018360001b6121e3565b905092915050565b600081600001805490509050919050565b600082600001828154811061213d577f4e487b7100000000000000000000000000000000000000000000000000000000600052603260045260246000fd5b9060005260206000200154905092915050565b600061215c83836121c0565b6121b55782600001829080600181540180825580915050600190039060005260206000200160009091909190915055826000018054905083600101600084815260200190815260200160002081905550600190506121ba565b600090505b92915050565b600080836001016000848152602001908152602001600020541415905092915050565b6000808360010160008481526020019081526020016000205490506000811461235d5760006001826122159190612ca8565b905060006001866000018054905061222d9190612ca8565b90508181146122e8576000866000018281548110612274577f4e487b7100000000000000000000000000000000000000000000000000000000600052603260045260246000fd5b90600052602060002001549050808760000184815481106122be577f4e487b7100000000000000000000000000000000000000000000000000000000600052603260045260246000fd5b90600052602060002001819055508387600101600083815260200190815260200160002081905550505b85600001805480612322577f4e487b7100000000000000000000000000000000000000000000000000000000600052603160045260246000fd5b600190038181906000526020600020016000905590558560010160008681526020019081526020016000206000905560019350505050612363565b60009150505b92915050565b6040518061010001604052806000815260200160008152602001600073ffffffffffffffffffffffffffffffffffffffff168152602001600073ffffffffffffffffffffffffffffffffffffffff168152602001600061ffff168152602001600061ffff168152602001600081526020016123e26123e8565b81525090565b6040518060400160405280600073ffffffffffffffffffffffffffffffffffffffff168152602001600081525090565b600081359050612427816131bb565b92915050565b60008135905061243c816131d2565b92915050565b600081359050612451816131e9565b92915050565b60006020828403121561246957600080fd5b600061247784828501612442565b91505092915050565b600080600080600060a0868803121561249857600080fd5b60006124a688828901612442565b95505060206124b788828901612418565b94505060406124c88882890161242d565b93505060606124d98882890161242d565b92505060806124ea88828901612442565b9150509295509295909350565b600061250383836127b7565b6101208301905092915050565b61251981612d47565b82525050565b61252881612cee565b82525050565b61253781612cdc565b82525050565b61254681612cdc565b82525050565b600061255782612b45565b6125618185612b5d565b935061256c83612b35565b8060005b8381101561259d57815161258488826124f7565b975061258f83612b50565b925050600181019050612570565b5085935050505092915050565b60006125b7602e83612b79565b91506125c282612e24565b604082019050919050565b60006125da602c83612b79565b91506125e582612e73565b604082019050919050565b60006125fd602c83612b79565b915061260882612ec2565b604082019050919050565b6000612620602b83612b79565b915061262b82612f11565b604082019050919050565b6000612643601a83612b79565b915061264e82612f60565b602082019050919050565b6000612666601683612b79565b915061267182612f89565b602082019050919050565b6000612689603183612b79565b915061269482612fb2565b604082019050919050565b60006126ac601783612b79565b91506126b782613001565b602082019050919050565b60006126cf602883612b79565b91506126da8261302a565b604082019050919050565b60006126f2601883612b79565b91506126fd82613079565b602082019050919050565b6000612715603783612b79565b9150612720826130a2565b604082019050919050565b6000612738602883612b79565b9150612743826130f1565b604082019050919050565b600061275b600083612b6e565b915061276682613140565b600082019050919050565b600061277e602a83612b79565b915061278982613143565b604082019050919050565b60006127a1601b83612b79565b91506127ac82613192565b602082019050919050565b610120820160008201516127ce6000850182612897565b5060208201516127e16020850182612897565b5060408201516127f4604085018261252e565b506060820151612807606085018261251f565b50608082015161281a6080850182612888565b5060a082015161282d60a0850182612888565b5060c082015161284060c0850182612897565b5060e082015161285360e0850182612859565b50505050565b60408201600082015161286f600085018261251f565b5060208201516128826020850182612897565b50505050565b61289181612d00565b82525050565b6128a081612d3d565b82525050565b6128af81612d3d565b82525050565b60006128c08261274e565b9150819050919050565b60006060820190506128df6000830186612510565b6128ec6020830185612510565b6128f960408301846128a6565b949350505050565b60006060820190506129166000830186612510565b612923602083018561253d565b61293060408301846128a6565b949350505050565b60006020820190508181036000830152612952818461254c565b905092915050565b60006020820190508181036000830152612973816125aa565b9050919050565b60006020820190508181036000830152612993816125cd565b9050919050565b600060208201905081810360008301526129b3816125f0565b9050919050565b600060208201905081810360008301526129d381612613565b9050919050565b600060208201905081810360008301526129f381612636565b9050919050565b60006020820190508181036000830152612a1381612659565b9050919050565b60006020820190508181036000830152612a338161267c565b9050919050565b60006020820190508181036000830152612a538161269f565b9050919050565b60006020820190508181036000830152612a73816126c2565b9050919050565b60006020820190508181036000830152612a93816126e5565b9050919050565b60006020820190508181036000830152612ab381612708565b9050919050565b60006020820190508181036000830152612ad38161272b565b9050919050565b60006020820190508181036000830152612af381612771565b9050919050565b60006020820190508181036000830152612b1381612794565b9050919050565b6000602082019050612b2f60008301846128a6565b92915050565b6000819050602082019050919050565b600081519050919050565b6000602082019050919050565b600082825260208201905092915050565b600081905092915050565b600082825260208201905092915050565b6000612b9582612d3d565b9150612ba083612d3d565b9250827fffffffffffffffffffffffffffffffffffffffffffffffffffffffffffffffff03821115612bd557612bd4612dc6565b5b828201905092915050565b6000612beb82612d3d565b9150612bf683612d3d565b925082612c0657612c05612df5565b5b828204905092915050565b6000612c1c82612d2e565b9150612c2783612d2e565b92508162ffffff0483118215151615612c4357612c42612dc6565b5b828202905092915050565b6000612c5982612d3d565b9150612c6483612d3d565b9250817fffffffffffffffffffffffffffffffffffffffffffffffffffffffffffffffff0483118215151615612c9d57612c9c612dc6565b5b828202905092915050565b6000612cb382612d3d565b9150612cbe83612d3d565b925082821015612cd157612cd0612dc6565b5b828203905092915050565b6000612ce782612d0e565b9050919050565b6000612cf982612d0e565b9050919050565b600061ffff82169050919050565b600073ffffffffffffffffffffffffffffffffffffffff82169050919050565b600062ffffff82169050919050565b6000819050919050565b6000612d5282612d59565b9050919050565b6000612d6482612d6b565b9050919050565b6000612d7682612d0e565b9050919050565b6000612d8882612d3d565b91507fffffffffffffffffffffffffffffffffffffffffffffffffffffffffffffffff821415612dbb57612dba612dc6565b5b600182019050919050565b7f4e487b7100000000000000000000000000000000000000000000000000000000600052601160045260246000fd5b7f4e487b7100000000000000000000000000000000000000000000000000000000600052601260045260246000fd5b7f76616c69646174654c697374696e674e46543a3a20436f6c6c61746572616c2060008201527f63616e6e6f74206265207a65726f000000000000000000000000000000000000602082015250565b7f76616c69646174654c697374696e674e46543a3a204475726174696f6e20636160008201527f6e6e6f74206265207a65726f0000000000000000000000000000000000000000602082015250565b7f76616c69646174654c697374696e674e46543a3a20546f6b656e49642063616e60008201527f6e6f7420626520656d7074790000000000000000000000000000000000000000602082015250565b7f63616e6e6f74207465726d696e6174652072656e74616c20746861742069732060008201527f6e6f742079657420647565000000000000000000000000000000000000000000602082015250565b7f63616e6e6f742072656e7420796f7572206f776e20746f6b656e000000000000600082015250565b7f6c697374696e6720646f6573206e6f7420657869737400000000000000000000600082015250565b7f76616c69646174654c697374696e674e46543a3a20546f6b656e41646472657360008201527f732063616e6e6f7420626520656d707479000000000000000000000000000000602082015250565b7f6c697374696e67494420776173206e6f7420666f756e64000000000000000000600082015250565b7f6f6e6c7920746865206c656e6465722063616e207465726d696e61746520746860008201527f652072656e74616c000000000000000000000000000000000000000000000000602082015250565b7f6e6f7420616e20617661696c61626c65206c697374696e670000000000000000600082015250565b7f76616c69646174654c697374696e674e46543a3a204461696c7920696e74657260008201527f65737420726174652063616e6e6f74206265207a65726f000000000000000000602082015250565b7f6661696c656420746f2073656e6420636f6c6c61746572616c206261636b207460008201527f6f206c656e646572000000000000000000000000000000000000000000000000602082015250565b50565b7f6661696c656420746f2073656e6420636f6c6c61746572616c206261636b207460008201527f6f20626f72726f77657200000000000000000000000000000000000000000000602082015250565b7f6d7573742073656e6420746865206578616374207061796d656e740000000000600082015250565b6131c481612cdc565b81146131cf57600080fd5b50565b6131db81612d00565b81146131e657600080fd5b50565b6131f281612d3d565b81146131fd57600080fd5b5056fea2646970667358221220555cca139fb2b64be396a2d3df44a850975b376095838ad28a1c47fa9522ee2164736f6c63430008040033",
  "linkReferences": {},
  "deployedLinkReferences": {}
}